package geth

import (
	"context"
	"crypto/ecdsa"
	"encoding/hex"
	"fmt"
	"log"
	"math/big"

	"github.com/ethereum/go-ethereum/common"
	"github.com/ethereum/go-ethereum/core/types"
	"github.com/ethereum/go-ethereum/crypto"
	"github.com/ethereum/go-ethereum/ethclient"
	"github.com/ethereum/go-ethereum/rlp"
)

// 调用客户端的HeaderByNumber来返回有关一个区块的头信息
// 传入nil返回最新的区块
// BlockByNumber方法来获得完整区块。您可以读取该区块的所有内容和元数据
// Transaction返回一个区块的交易数目
func DescribeBlock() {
	client, err := ethclient.Dial("https://cloudflare-eth.com")
	if err != nil {
		log.Fatal(err)
	}

	header, err := client.HeaderByNumber(context.Background(), nil)
	if err != nil {
		log.Fatal(err)
	}

	fmt.Println(header.Number.String()) // 5671744

	blockNumber := big.NewInt(5671744)
	block, err := client.BlockByNumber(context.Background(), blockNumber)
	if err != nil {
		log.Fatal(err)
	}

	fmt.Println(block.Number().Uint64())     // 5671744
	fmt.Println(block.Time())                // 1527211625
	fmt.Println(block.Difficulty().Uint64()) // 3217000136609065
	fmt.Println(block.Hash().Hex())          // 0x9e8751ebb5069389b855bba72d94902cc385042661498a415979b7b6ee9ba4b9
	fmt.Println(len(block.Transactions()))   // 144

	count, err := client.TransactionCount(context.Background(), block.Hash())
	if err != nil {
		log.Fatal(err)
	}

	fmt.Println(count) // 144
}

func DescribeTransaction() {
	client, err := ethclient.Dial("https://cloudflare-eth.com")
	if err != nil {
		log.Fatal(err)
	}

	blockNumber := big.NewInt(5671744)
	block, err := client.BlockByNumber(context.Background(), blockNumber)
	if err != nil {
		log.Fatal(err)
	}

	for _, tx := range block.Transactions() {
		fmt.Println(tx.Hash().Hex())        // 0x5d49fcaa394c97ec8a9c3e7bd9e8388d420fb050a52083ca52ff24b3b65bc9c2
		fmt.Println(tx.Value().String())    // 10000000000000000
		fmt.Println(tx.Gas())               // 105000
		fmt.Println(tx.GasPrice().Uint64()) // 102000000000
		fmt.Println(tx.Nonce())             // 110644
		fmt.Println(tx.Data())              // []
		fmt.Println(tx.To().Hex())          // 0x55fE59D8Ad77035154dDd0AD0388D09Dd4047A8e

		chainID, err := client.NetworkID(context.Background())
		if err != nil {
			log.Fatal(err)
		}

		if msg, err := tx.AsMessage(types.NewEIP155Signer(chainID), nil); err == nil {
			fmt.Println(msg.From().Hex()) // 0x0fD081e3Bb178dc45c0cb23202069ddA57064258
		}

		receipt, err := client.TransactionReceipt(context.Background(), tx.Hash())
		if err != nil {
			log.Fatal(err)
		}

		fmt.Println(receipt.Status) // 1
	}

	blockHash := common.HexToHash("0x9e8751ebb5069389b855bba72d94902cc385042661498a415979b7b6ee9ba4b9")
	count, err := client.TransactionCount(context.Background(), blockHash)
	if err != nil {
		log.Fatal(err)
	}

	for idx := uint(0); idx < count; idx++ {
		tx, err := client.TransactionInBlock(context.Background(), blockHash, idx)
		if err != nil {
			log.Fatal(err)
		}

		fmt.Println(tx.Hash().Hex()) // 0x5d49fcaa394c97ec8a9c3e7bd9e8388d420fb050a52083ca52ff24b3b65bc9c2
	}

	txHash := common.HexToHash("0x5d49fcaa394c97ec8a9c3e7bd9e8388d420fb050a52083ca52ff24b3b65bc9c2")
	tx, isPending, err := client.TransactionByHash(context.Background(), txHash)
	if err != nil {
		log.Fatal(err)
	}

	fmt.Println(tx.Hash().Hex()) // 0x5d49fcaa394c97ec8a9c3e7bd9e8388d420fb050a52083ca52ff24b3b65bc9c2
	fmt.Println(isPending)       // false
}

// 一个账户往另一个账户转账et 加载私钥签名交易
// 连接客户端 加载私钥 账户的公共地址 用于账户交易的随机数
// 确认燃油费 确认发给谁 为交易签名
func DoEthTransfer() {
	client, err := ethclient.Dial("https://rinkeby.infura.io")
	if err != nil {
		log.Fatal(err)
	}

	privateKey, err := crypto.HexToECDSA("fad9c8855b740a0b7ed4c221dbad0f33a83a49cad6b3fe8d5817ac83d38b6a19")
	if err != nil {
		log.Fatal(err)
	}

	publicKey := privateKey.Public()
	publicKeyECDSA, ok := publicKey.(*ecdsa.PublicKey)
	if !ok {
		log.Fatal("cannot assert type: publicKey is not of type *ecdsa.PublicKey")
	}

	fromAddress := crypto.PubkeyToAddress(*publicKeyECDSA)
	nonce, err := client.PendingNonceAt(context.Background(), fromAddress)
	if err != nil {
		log.Fatal(err)
	}

	value := big.NewInt(1000000000000000000) // in wei (1 eth)
	gasLimit := uint64(21000)                // in units
	gasPrice, err := client.SuggestGasPrice(context.Background())
	if err != nil {
		log.Fatal(err)
	}

	toAddress := common.HexToAddress("0x4592d8f8d7b001e72cb26a73e4fa1806a51ac79d")
	var data []byte
	tx := types.NewTransaction(nonce, toAddress, value, gasLimit, gasPrice, data)

	chainID, err := client.NetworkID(context.Background())
	if err != nil {
		log.Fatal(err)
	}

	signedTx, err := types.SignTx(tx, types.NewEIP155Signer(chainID), privateKey)
	if err != nil {
		log.Fatal(err)
	}

	err = client.SendTransaction(context.Background(), signedTx)
	if err != nil {
		log.Fatal(err)
	}

	fmt.Printf("tx sent: %s", signedTx.Hash().Hex())
}

// 监听新区块
// 新区块被开采时接受通知

// 创建裸交易，发送裸交易
func CreateRawTransaction() {
	client, err := ethclient.Dial("https://rinkeby.infura.io")
	if err != nil {
		log.Fatal(err)
	}

	privateKey, err := crypto.HexToECDSA("fad9c8855b740a0b7ed4c221dbad0f33a83a49cad6b3fe8d5817ac83d38b6a19")
	if err != nil {
		log.Fatal(err)
	}

	publicKey := privateKey.Public()
	publicKeyECDSA, ok := publicKey.(*ecdsa.PublicKey)
	if !ok {
		log.Fatal("cannot assert type: publicKey is not of type *ecdsa.PublicKey")
	}

	fromAddress := crypto.PubkeyToAddress(*publicKeyECDSA)
	nonce, err := client.PendingNonceAt(context.Background(), fromAddress)
	if err != nil {
		log.Fatal(err)
	}

	value := big.NewInt(1000000000000000000) // in wei (1 eth)
	gasLimit := uint64(21000)                // in units
	gasPrice, err := client.SuggestGasPrice(context.Background())
	if err != nil {
		log.Fatal(err)
	}

	toAddress := common.HexToAddress("0x4592d8f8d7b001e72cb26a73e4fa1806a51ac79d")
	var data []byte
	tx := types.NewTransaction(nonce, toAddress, value, gasLimit, gasPrice, data)

	chainID, err := client.NetworkID(context.Background())
	if err != nil {
		log.Fatal(err)
	}

	signedTx, err := types.SignTx(tx, types.NewEIP155Signer(chainID), privateKey)
	if err != nil {
		log.Fatal(err)
	}
	fmt.Println(signedTx)

	// ts := types.Transactions{signedTx}
	// rawTxBytes := ts.GetRlp(0)
	// rawTxHex := hex.EncodeToString(rawTxBytes)

	// fmt.Printf(rawTxHex) // f86...772
}

func SendRawTransaction() {
	client, err := ethclient.Dial("https://rinkeby.infura.io")
	if err != nil {
		log.Fatal(err)
	}

	rawTx := "f86d8202b28477359400825208944592d8f8d7b001e72cb26a73e4fa1806a51ac79d880de0b6b3a7640000802ca05924bde7ef10aa88db9c66dd4f5fb16b46dff2319b9968be983118b57bb50562a001b24b31010004f13d9a26b320845257a6cfc2bf819a3d55e3fc86263c5f0772"

	rawTxBytes, err := hex.DecodeString(rawTx)

	tx := new(types.Transaction)
	rlp.DecodeBytes(rawTxBytes, &tx)

	err = client.SendTransaction(context.Background(), tx)
	if err != nil {
		log.Fatal(err)
	}

	fmt.Printf("tx sent: %s", tx.Hash().Hex()) // tx sent: 0xc429e5f128387d224ba8bed6885e86525e14bfdc2eb24b5e9c3351a1176fd81f
}
